:100000000C942A000C9447000C9447000C94470071
:100010000C9447000C9447000C9447000C94470044
:100020000C9447000C9447000C9447000C94470034
:100030000C9447000C9447000C9447000C94470024
:100040000C9447000C9447000C9447000C94470014
:100050000C94470011241FBECFE5D4E0DEBFCDBF16
:1000600010E0A0E6B0E0E8EDF0E002C005900D92EF
:10007000A036B107D9F710E0A0E6B0E001C01D92AC
:10008000A036B107E1F70E9454000C946A000C946A
:10009000000078946E9ABC98BD98BE9ABF98D79A83
:1000A000DF9A0895379A089580E88ABB8FEF81BB65
:1000B0000E9449000E945200FFCF369AFFCF17B826
:1000C0008295807F807782BB0E945D0082E087B945
:0800D0000E945D00F894FFCFCF
:00000001FF
