:100000000C942A000C9447000C9447000C94470071
:100010000C9447000C9447000C9447000C94470044
:100020000C9447000C9447000C9447000C94470034
:100030000C9447000C9447000C9447000C94470024
:100040000C9447000C9447000C9447000C94470014
:100050000C94470011241FBECFE5D4E0DEBFCDBF16
:1000600010E0A0E6B0E0EAEDF0E002C005900D92ED
:10007000A036B107D9F710E0A0E6B0E001C01D92AC
:10008000A036B107E1F70E9451000C946B000C946C
:1000900000006E9ABC98BD98BE9ABF98D79ADF9A16
:1000A00008958FEF8ABB0E9449008FEF2FEF39E64A
:1000B00048E1215030404040E1F700C000008BBBD8
:1000C0002FEF39E648E1215030404040E1F700C0D1
:0A00D00000001BBAEBCFF894FFCF3D
:00000001FF
