:100000000C9446000C9465000C9465000C946500FB
:100010000C9465000C9465000C9465000C946500CC
:100020000C9465000C9465000C9465000C946500BC
:100030000C9465000C9465000C9465000C946500AC
:100040000C9465000C9465000C9465000C9465009C
:100050000C9465000C9465000C9465000C9465008C
:100060000C9465000C9465000C9465000C9465007C
:100070000C9465000C9465000C9465000C9465006C
:100080000C9465000C9465000C94650011241FBE4F
:10009000CFEFD0E4DEBFCDBF11E0A0E0B1E0EEE9EC
:1000A000F5E000E00BBF02C007900D92AC32B10743
:1000B000D9F711E0ACE2B1E001C01D92AD34B10757
:1000C000E1F70E940B020C94CD020C9400008230E8
:1000D000910558F46131710540F4009719F460936B
:1000E0002C010895605F60932C010895469A00C02A
:1000F0004698089511B84798479A179B04C00E94E4
:1001000076001799FCCF8FEF81B90895CF93C82F50
:100110000E947A00C2B947980E94760012B8CF9127
:10012000089590912C01EDE2F1E0E90FF11D80833B
:100130009F5F90932C01903210F010922C01089543
:10014000CF93DF93EC018881882331F021960E94C0
:10015000910089918823D9F7DF91CF910895CF93AA
:10016000DF9380E090E060E070E00E946700C0E212
:10017000D0E080E20E9491002197D9F7DF91CF91E2
:10018000089580912C01803118F010922C0108956F
:1001900080E180932C010895CF93C82F0E947A00AC
:1001A000C2B94798479A0E94760012B8CF91089535
:1001B0000F931F93CF93DF9382E00E94860087E81E
:1001C00093E10197F1F700C000000DE211E0C0E2F9
:1001D000D0E0F80181918F010E94CC0083EF91E083
:1001E0000197F1F700C000002197C031D10551F40B
:1001F00080EC0E948600E3EFF1E03197F1F700C058
:100200000000E7CF1C161D0624F3DF91CF911F914C
:100210000F91089580912C01882321F48FE1809320
:100220002C0103C0815080932C0180E20E94910038
:100230000E94D80080912C01882321F48FE18093C3
:100240002C010895815080932C0108950F931F93E2
:10025000CF93DF938C016031710518F587E893E146
:100260000197F1F700C00000862F880F880F880FD4
:1002700080640E948600E3EFF1E03197F1F700C05F
:100280000000E8012996F80181918F010E94CC00BD
:1002900083EF91E00197F1F700C000000C171D07F4
:1002A00091F7DF91CF911F910F910895CF93DF9335
:1002B000CDB7DEB7A0970FB6F894DEBF0FBECDBFA7
:1002C000DE011196E0E0F1E088E001900D928150AE
:1002D000E1F7DE011996E8E0F1E088E001900D9287
:1002E0008150E1F7DE015196E0E1F1E088E0019014
:1002F0000D928150E1F7DE015996E8E1F1E088E0E6
:1003000001900D928150E1F7CE01019661E070E01D
:100310000E942601CE01099662E070E00E9426014B
:10032000CE01419663E070E00E942601CE0149961D
:1003300064E070E00E942601A0960FB6F894DEBF3C
:100340000FBECDBFDF91CF91089587B1806C87B983
:100350008FE493EC0197F1F700C0000088E30E945E
:10036000860083ED90E30197F1F700C000008DE077
:100370000E94860083ED90E30197F1F700C0000032
:1003800081E00E94860083EF91E00197F1F700C0C1
:1003900000008FEF81B983EF91E00197F1F700C082
:1003A00000000E9456010895539852985B9A5A9AF9
:1003B000239A229A2B9A2A9A089512B8159A149A77
:1003C000139A089512B8109A089512B8119A0895C0
:1003D000479A88E482B90895469A8FEF94E3ACE097
:1003E00081509040A040E1F700C0000046988FEF98
:1003F00094E3ACE081509040A040E1F700C00000E1
:10040000469A8FEF94E3ACE081509040A040E1F732
:1004100000C0000008958FEF81B93E9A3F9A209A5C
:10042000219A579A569A559AE0E8F0E01082808116
:1004300080688083808182608083E1E8F0E01082C0
:1004400080818260808380818860808380818061F8
:10045000808380818160808380818260808322E0CC
:1004600020936F0084EC99E090938700809386003E
:100470008CE291E09093890080938800E0EBF0E0BB
:100480001082808180688083808180628083808107
:10049000816080838081826080831092B30010929B
:1004A000B400E1EBF0E010828081816080832093D2
:1004B00070000E94A5010E94AF000E94D80080E257
:1004C00091E00E94A0000E94D8000E94D401509A9E
:1004D00081E6EFE1FEE43197F1F700C00000C82F9C
:1004E000CF5F0E9491000E94D8008C2FF2CF8093A2
:1004F000B3008093B400299A289A08958093B3009A
:100500008093B4002998289808958093B3000895A3
:100510008093B40008951092B3001092B40008952F
:100520008093B3006093B4002998289A089580932B
:10053000B3008093B400299A2898089580E490E04D
:10054000909389008093880008958AE391E09093C6
:100550008900809388000895CF93DF9312B847985D
:10056000109A119A129A139ACCEED1E0FE010995D5
:100570000E94DD01FE0109950E94E501FE01099539
:100580000E94E201FE0109950E94E801FE01099521
:0E059000DF91CF91089512980895F894FFCF4F
:10059E0004000E010F110F0004000E111F111100A7
:1005AE000A000E111F1111000A0E111111110E0069
:0C05BE00446174613A2031203220330087
:00000001FF
