:100000000C9446000C9465000C9465000C946500FB
:100010000C9465000C9465000C9465000C946500CC
:100020000C9465000C9465000C9465000C946500BC
:100030000C9465000C9465000C9465000C946500AC
:100040000C9465000C9465000C9465000C9465009C
:100050000C9465000C9465000C9465000C9465008C
:100060000C9465000C9465000C9465000C9465007C
:100070000C9465000C9465000C9465000C9465006C
:100080000C9465000C9465000C94650011241FBE4F
:10009000CFEFD0E4DEBFCDBF11E0A0E0B1E0EEE5F0
:1000A000F1E000E00BBF02C007900D92A030B10755
:1000B000D9F711E0A0E0B1E001C01D92A030B10776
:1000C000E1F70E9467000C94AD000C940000E0E89A
:1000D000F0E01082808180688083808182608083EC
:1000E000E1E8F0E010828081826080838081886016
:1000F0008083808180618083808181608083808132
:1001000084608083E0EBF0E01082808180688083EF
:100110008081806280838081816080838081826031
:1001200080831092B3001092B400E1EBF0E01082F3
:10013000808181608083FFCF8093B3008093B4007F
:10014000289A299A08958093B3008093B400289840
:0E015000299808958093B3000895F894FFCF86
:00000001FF
