:100000000C9446000C9465000C9465000C946500FB
:100010000C9465000C9465000C9465000C946500CC
:100020000C9465000C9465000C9465000C946500BC
:100030000C9465000C9465000C9465000C946500AC
:100040000C9465000C9465000C9465000C9465009C
:100050000C9465000C9465000C9465000C9465008C
:100060000C9465000C9465000C9465000C9465007C
:100070000C9465000C9465000C9465000C9465006C
:100080000C9465000C9465000C94650011241FBE4F
:10009000CFEFD0E4DEBFCDBF11E0A0E0B1E0ECEFE8
:1000A000F1E000E00BBF02C007900D92A030B10755
:1000B000D9F711E0A0E0B1E001C01D92A030B10776
:1000C000E1F70E947A000C94FC000C9400008093ED
:1000D000B3008093B400299A289A08951092B3002F
:1000E0001092B400089588EC90E09093890080937A
:1000F000880008958FEF81B984B987B98AB9E0E89B
:10010000F0E01082808180688083808182608083BB
:10011000E1E8F0E0108280818260808380818860E5
:10012000808380818061808380818160808322E000
:1001300020936F0086E891E090938700809386007B
:1001400088EC90E09093890080938800E0EBF0E0E9
:10015000108280818068808380818062808380813A
:10016000816080838081826080831092B3001092CE
:10017000B400E1EBF0E01082808181608083209305
:1001800070008AE590E00E9467008FE794E8AEE196
:1001900081509040A040E1F700C000000E94730031
:1001A0000E946E008FE794E8AEE181509040A0403D
:1001B000E1F700C00000E5CF8093B3008093B40066
:1001C0002998289808958093B30008958093B400E7
:1001D00008958093B3006093B4002998289A0895F5
:1001E0008093B3008093B400299A289808951092C0
:0C01F0008900109288000895F894FFCF59
:00000001FF
