:100000000C942A000C9447000C9447000C94470071
:100010000C9447000C9447000C9447000C94470044
:100020000C9447000C9447000C9447000C94470034
:100030000C9447000C9447000C9447000C94470024
:100040000C9447000C9447000C9447000C94470014
:100050000C94470011241FBECFE5D4E0DEBFCDBF16
:1000600010E0A0E6B0E0E0EFF0E002C005900D92F5
:10007000A036B107D9F710E0A0E6B0E001C01D92AC
:10008000A036B107E1F70E9458000C9476000C945A
:1000900000001DB8BC98BD98BE9ABF98D79ADF9A49
:1000A0006E9A089582E38FB9779BFECF8FB1089542
:1000B00078940E944900C2E0CBBB0E9452008BBBE7
:1000C000FBCF919A83E389B910BC88E18AB908957E
:1000D0005D9BFECF8CB908951F920F920FB60F92C1
:1000E00011240F900FBE0F901F901895F894FFCF1A
:00000001FF
