:100000000C942A000C9447000C9447000C94470071
:100010000C9447000C9447000C9447000C94470044
:100020000C9447000C9447000C9447000C94470034
:100030000C9447000C9447000C9447000C94470024
:100040000C9447000C9447000C9447000C94470014
:100050000C94470011241FBECFE5D4E0DEBFCDBF16
:1000600010E0A0E6B0E0E2E2F1E002C005900D92FF
:10007000A036B107D9F710E0A0E6B0E001C01D92AC
:10008000A036B107E1F70E946D000C948F000C942C
:1000900000006E9ABC98BD98BE9ABF98D79ADF9A16
:1000A0000895919A83E389B910BC88E18AB90895CB
:1000B000C19A779BFECFC1988FB108955D9BFECF0B
:1000C0008CB9089590BD89B988E18AB98EE880BD60
:1000D00008955D9BFECF8CB908951BBAB99A7894A8
:1000E0000E94490082E38FB90E94510080E895E2A6
:1000F0000E94620081E60E9469000E9458008BBB4A
:10010000F9CF5F9BFECF8CB108951F920F920FB66F
:100110000F9211240F900FBE0F901F901895F89416
:02012000FFCF0F
:00000001FF
