:100000000C942A000C9447000C9447000C94470071
:100010000C9447000C9447000C9447000C94470044
:100020000C9447000C9447000C9447000C94470034
:100030000C9447000C9447000C9447000C94470024
:100040000C9447000C9447000C9447000C94470014
:100050000C94470011241FBECFE5D4E0DEBFCDBF16
:1000600010E0A0E6B0E0E8EAF1E002C005900D92F1
:10007000A236B107D9F710E0A2E6B0E001C01D92A8
:10008000A836B107E1F70E947A000C94D2000C94D4
:1000900000006E9ABC98BD98BE9ABF98D79ADF9A16
:1000A0000895919A83E389B910BC88E18AB90895CB
:1000B00080916300809366000895C19A779BFECF7C
:1000C000C1988FB108958FB18BBB8FB180936600BB
:1000D00008958FB908955D9BFECF8CB9089590BDAA
:1000E00089B988E18AB98EE880BD08955D9BFECF0D
:1000F0008CB908951BBAB99AD79A78940E9449008E
:1001000082E38FB90E94510080E895E20E946F005F
:1001100081E60E9476000E945D008BBBF9CF5F9B59
:10012000FECF8CB108951F920F920FB60F9211243B
:100130002F933F934F935F936F937F938F939F93EF
:10014000AF93BF93EF93FF930E9463000E94580008
:10015000809165000E946900FF91EF91BF91AF917E
:100160009F918F917F916F915F914F913F912F91CF
:100170000F900FBE0F901F9018958BB38F678BBB9E
:1001800008958FB90E94BD00089580916000882372
:1001900029F0109267009FEF9093640090E00E9416
:0801A000C1000895F894FFCF9F
:0201A800340021
:00000001FF
