:100000000C942A000C9447000C9447000C94470071
:100010000C9447000C9447000C9447000C94470044
:100020000C9447000C9447000C9447000C94470034
:100030000C9447000C9447000C9447000C94470024
:100040000C9447000C9447000C9447000C94470014
:100050000C94470011241FBECFE5D4E0DEBFCDBF16
:1000600010E0A0E6B0E0E2EFF0E002C005900D92F3
:10007000A036B107D9F710E0A0E6B0E001C01D92AC
:10008000A036B107E1F70E9457000C9477000C945A
:1000900000006E9ABC98BD98BE9ABF98D79ADF9A16
:1000A0000895C19A779BFECFC1988FB108951BBA6E
:1000B000B99A78940E94490082E38FB90E94510056
:1000C0008BBBFCCF919A83E389B910BC88E18AB9D4
:1000D00008955D9BFECF8CB908951F920F920FB6C5
:1000E0000F9211240F900FBE0F901F901895F89447
:0200F000FFCF40
:00000001FF
