:100000000C942A000C9447000C9447000C94470071
:100010000C9447000C9447000C9447000C94470044
:100020000C9447000C9447000C9447000C94470034
:100030000C9447000C9447000C9447000C94470024
:100040000C9447000C9447000C9447000C94470014
:100050000C94470011241FBECFE5D4E0DEBFCDBF16
:1000600010E0A0E6B0E0ECECF0E002C005900D92EC
:10007000A036B107D9F710E0A0E6B0E001C01D92AC
:10008000A036B107E1F70E9449000C9464000C947B
:1000900000008FEF8ABB87BB84BB81BB8BBB88BB57
:1000A00085BB82BBFFCFBC98BE98BD9AD79ADF9A1A
:1000B0000895919A83E389B910BC88E18AB90895BB
:0C00C0005D9BFECF8CB90895F894FFCF33
:00000001FF
