:100000000C942A000C9447000C9447000C94470071
:100010000C9447000C9447000C9447000C94470044
:100020000C9447000C9447000C9447000C94470034
:100030000C9447000C9447000C9447000C94470024
:100040000C9447000C9447000C9447000C94470014
:100050000C94470011241FBECFE5D4E0DEBFCDBF16
:1000600010E0A0E6B0E0E4EFF0E002C005900D92F1
:10007000A036B107D9F710E0A0E6B0E001C01D92AC
:10008000A036B107E1F70E9449000C9478000C9467
:1000900000008FEF8ABB87BB84BB81BB8BBB88BB57
:1000A00085BB82BB2FEF39E648E12150304040400C
:1000B000E1F700C000001BBA2FEF39E648E12150FC
:1000C00030404040E1F700C000008BBBEBCFBC9854
:1000D000BE98BD9AD79ADF9A0895919A83E389B919
:1000E00010BC88E18AB908955D9BFECF8CB9089554
:0400F000F894FFCFB2
:00000001FF
