:100000000C942A000C9447000C9447000C94470071
:100010000C9447000C9447000C9447000C94470044
:100020000C9447000C9447000C9447000C94470034
:100030000C9447000C9447000C9447000C94470024
:100040000C9447000C9447000C9447000C94470014
:100050000C94470011241FBECFE5D4E0DEBFCDBF16
:1000600010E0A0E6B0E0EEEAF1E002C005900D92EB
:10007000A436B107D9F710E0A4E6B0E001C01D92A4
:10008000A836B107E1F70E9475000C94D5000C94D6
:1000900000006E9ABC98BD98BE9ABF98D79ADF9A16
:1000A0000895919A83E389B910BC88E18AB90895CB
:1000B000C19A779BFECFC1988FB108958FB18BBB4A
:1000C0008FB18093660008958FB908955D9BFECF30
:1000D0008CB9089590BD89B988E18AB98EE880BD50
:1000E00008955D9BFECF8CB908951BBAB99AD79A33
:1000F00078940E94490082E38FB90E94510080E801
:1001000095E20E946A0081E60E9471000E945800F8
:100110008BBBF9CF5F9BFECF8CB108951F920F92DE
:100120000FB60F9211242F933F934F935F936F93CA
:100130007F938F939F93AF93BF93EF93FF930E940F
:100140005E000E94BC00FF91EF91BF91AF919F9123
:100150008F917F916F915F914F913F912F910F9070
:100160000FBE0F901F9018958BB38F678BBB0895B0
:100170008FB90E94B4000895809161008093660059
:10018000882319F0809167008FB90E94B400089508
:1001900080916200882329F0109267009FEF90936E
:0E01A000640090E00E94B8000895F894FFCF2C
:0401AE003C383400A5
:00000001FF
